:100A3C00E4F513AF131209BC0513E513C39401407D
:100A4C00F2E4F50F75C804F5C975CDFC75CBFC75D2
:090A5C00CC1875CA18D2ADD2CA3B
:010A6500226E
:030A9E00D2AF22B2
:03002B0002088C3C
:10088C00C0E0C0F0C0D075D000C000C004C005C02E
:01089C000754
:10089D00C2CFE4FFEF75F007A42408F8E6FC08E6E4
:1008AD004C6046EF75F007A4240AF8E6FC08E64C08
:1008BD007028EF75F007A4240EF806EF75F007A465
:1008CD00240CF8E6FC08E6FD4C601EEF75F007A45D
:1008DD00240AF8A60408A605800FEF75F007A424D6
:0D08ED000AF808E616187001160FBF01A7E3
:0F08FA00D007D005D004D000D0D0D0F0D0E0325D
:030AA100C200226E
:0D0A8300300005C200C29522D200D295229B
:100A6600120A3C120AA17E0A7F837BE87A03E4FD20
:0D0A7600FC120909120A9E12096880FB2279
:030A9A00010F0049
:10096800E4F513E51375F007A4240EF8E6D3940014
:100978004032E51375F007A42408F8E6FE08E6AA55
:1009880006F9120A90E51375F007A4240EF816E587
:100998001375F007A4240CF8E6FE08E64E7005AFC0
:1009A800131209BC0513E513C3940140B6120A05D6
:0309B800120A968A
:0109BB002219
:080909008E138F148C158D165E
:10091100E4FEEE75F007A42408F8E6FC08E64C6056
:1009210009EEC3940150030E80E8BE0106750F0164
:100931007F0122EE75F007A42408F8A61308A61477
:10094100EE75F007A4240AF8A61508A616EE75F0B0
:1009510007A4240CF8A60208A603EE75F007A42448
:060961000EF8E4F6AF06FB
:01096700226D
:1009BC00EF75F007A42408F8E6FC08E64C70077500
:1009CC000F02D2018002C201EF75F007A42408F8CF
:1009DC00E4F608F6EF75F007A4240AF8E4F608F636
:1009EC00EF75F007A4240CF8E4F608F6EF75F007A1
:0809FC00A4240EF8E4F6A201A8
:010A040022CF
:100A0500E50F6510601BC374FF950FF5A0850F10EA
:100A1500E50F60077511EA75126022E4F511F5120C
:100A250022E5124511600FE5121512700215111419
:070A350045117002F50F22CC
:040A9600438701226F
:03000000020800F3
:0C080000787FE4F6D8FD758120020847DF
:060A90008A838982E473F1
:10080C00020A66E493A3F8E493A34003F68001F292
:10081C0008DFF48029E493A3F85407240CC8C333ED
:10082C00C4540F4420C8834004F456800146F6DFBC
:10083C00E4800B0102040810204080900A9AE47EA8
:10084C00019360BCA3FF543F30E509541FFEE493B1
:10085C00A360010ECF54C025E060A840B8E493A378
:10086C00FAE493A3F8E493A3C8C582C8CAC583CAA3
:10087C00F0A3C8C582C8CAC583CADFE9DEE780BE5B
:010A9D000058
:00000001FF
