:100AC800120AF7120B877E0B7F72C2027BE87A0349
:100AD800E4FDFC1209727E0B7F4AD2027B207A4E1B
:0F0AE800E4FDFC120972120B9F1209E080FB2241
:100B21005389F0438901C2A9E4FDFCC3ED9FEC9E0A
:100B31005016758CFC758A54C28DD28C308DFDC2D5
:080B41008C0DBD00010C80E3E6
:010B49002289
:030B8F000108005A
:1009E000E4F522E52275F008A42413F8E66049E551
:1009F0002275F008A42412F8E6D39400403AE522C8
:100A000075F008A4240CF8E6FE08E6AA06F9120B15
:100A100095E52275F008A42412F816E52275F00871
:100A2000A42410F8E6FE08E64E700DE52275F008E5
:100A3000A4240CF8E4F608F60522E522C39402404B
:070A4000A2120A91120B9BA8
:010A4700228C
:080972008E228F238C248D25B9
:10097A00E4FEEE75F008A4240CF8E6FC08E64C60E8
:10098A0009EEC3940250030E80E8BE020675080100
:10099A007F0222EE75F008A4240CF8A62208A623EA
:1009AA00EE75F008A4240EF8A62408A625EE75F024
:1009BA0008A42410F8A60208A603A202E433FFEE54
:1009CA0075F008A42413F8A607EE75F008A42412FB
:0509DA00F8E4F6AF0691
:0109DF0022F5
:100A4800EF75F008A4240CF8E6FC08E64C7007756E
:100A58000802D2028002C202EF75F008A4240CF842
:100A6800E4F608F6EF75F008A4240EF8E4F608F6A4
:100A7800EF75F008A42410F8E4F608F6EF75F0080E
:080A8800A42412F8E4F6A20216
:010A90002243
:100A9100E5086509601BC374FF9508F59085080991
:100AA100E5086007750AEA750B6022E4F50AF50BA3
:100AB10022E50B450A600FE50B150B7002150A14B0
:070AC100450A7002F508224E
:040B9B004387012269
:020B9200C100A0
:080B8700C20175A0AAC2002200
:100B7200200011D200300106C201C2A28004D201BB
:050B8200D2A2C2002216
:100B4A00200024D200E4F52375A00F7FE87E03126B
:100B5A000B2175A0F07FE87E03120B210523E52304
:070B6A00C3940540E3C20043
:010B71002261
:100AF700E4F522AF22120A480522E522C3940240F8
:100B0700F2E4F50875C804F5C975CDFC75CBFC751D
:090B1700CC1875CA18D2ADD2CA7F
:010B200022B2
:030B9F00D2AF22B0
:03002B00020800C8
:10080000C0E0C0F0C083C082C0D075D000C000C0BE
:0D08100001C002C003C004C005C006C0073F
:10081D00C2CF752100E52175F008A4240CF8E6FE81
:10082D0008E64E70030208BFE52175F008A4240EFA
:10083D00F8E6FE08E64E706AE52175F008A424136B
:10084D00F8E6600CE52175F008A42412F806803155
:10085D00E52175F008A4240CF8E6FE08E6AA06F9D1
:10086D00120B95E52175F008A42410F8E6FE08E6B4
:10087D004E700EE52175F008A4240CF8760008766C
:10088D0000E52175F008A42410F8E6FE08E6FF4EF9
:10089D006020E52175F008A4240EF8A60608A60729
:1008AD008010E52175F008A4240EF808E6161870DE
:0E08BD0001160521E521C39402500302082212
:1008CB00D007D006D005D004D003D002D001D00081
:0B08DB00D0D0D082D083D0F0D0E0322B
:030000000208E60D
:0C08E600787FE4F6D8FD75812502092D0D
:060B95008A838982E473EB
:1008F200020AC8E493A3F8E493A34003F68001F24A
:1009020008DFF48029E493A3F85407240CC8C33306
:10091200C4540F4420C8834004F456800146F6DFD5
:10092200E4800B0102040810204080900B8FE47ECB
:10093200019360BCA3FF543F30E509541FFEE493CA
:10094200A360010ECF54C025E060A840B8E493A391
:10095200FAE493A3F8E493A3C8C582C8CAC583CABC
:10096200F0A3C8C582C8CAC583CADFE9DEE780BE74
:010B94000060
:00000001FF
